ARM GAS  /tmp/cc791jEN.s 			page 1


   1              		.syntax unified
   2              		.cpu cortex-m3
   3              		.fpu softvfp
   4              		.eabi_attribute 20, 1
   5              		.eabi_attribute 21, 1
   6              		.eabi_attribute 23, 3
   7              		.eabi_attribute 24, 1
   8              		.eabi_attribute 25, 1
   9              		.eabi_attribute 26, 1
  10              		.eabi_attribute 30, 2
  11              		.eabi_attribute 34, 1
  12              		.eabi_attribute 18, 4
  13              		.thumb
  14              		.file	"chcore_v7m.c"
  15              		.text
  16              	.Ltext0:
  17              		.cfi_sections	.debug_frame
  18              		.section	.text._port_switch_from_isr,"ax",%progbits
  19              		.align	2
  20              		.p2align 4,,15
  21              		.global	_port_switch_from_isr
  22              		.thumb
  23              		.thumb_func
  24              		.type	_port_switch_from_isr, %function
  25              	_port_switch_from_isr:
  26              	.LFB11:
  27              		.file 1 "../../os/ports/GCC/ARMCMx/chcore_v7m.c"
  28              		.loc 1 207 0
  29              		.cfi_startproc
  30              		@ Naked Function: prologue and epilogue provided by programmer.
  31              		@ args = 0, pretend = 0, frame = 0
  32              		@ frame_needed = 0, uses_anonymous_args = 0
  33              		.loc 1 210 0
  34 0000 FFF7FEFF 		bl	chSchDoReschedule
  35              		.loc 1 212 0
  36              	@ 212 "../../os/ports/GCC/ARMCMx/chcore_v7m.c" 1
  37              		_port_exit_from_isr:
  38              	@ 0 "" 2
  39              		.loc 1 214 0
  40              	@ 214 "../../os/ports/GCC/ARMCMx/chcore_v7m.c" 1
  41 0004 00DF     		svc     #0
  42              	@ 0 "" 2
  43              		.loc 1 221 0
  44              		.thumb
  45              		.cfi_endproc
  46              	.LFE11:
  47              		.size	_port_switch_from_isr, .-_port_switch_from_isr
  48 0006 00BFAFF3 		.section	.text.SVCallVector,"ax",%progbits
  48      0080AFF3 
  48      0080
  49              		.align	2
  50              		.p2align 4,,15
  51              		.global	SVCallVector
  52              		.thumb
  53              		.thumb_func
  54              		.type	SVCallVector, %function
  55              	SVCallVector:
ARM GAS  /tmp/cc791jEN.s 			page 2


  56              	.LFB8:
  57              		.loc 1 65 0
  58              		.cfi_startproc
  59              		@ args = 0, pretend = 0, frame = 0
  60              		@ frame_needed = 0, uses_anonymous_args = 0
  61              		@ link register save eliminated.
  62              		.loc 1 69 0
  63              	@ 69 "../../os/ports/GCC/ARMCMx/chcore_v7m.c" 1
  64 0000 EFF30983 		mrs     r3, PSP
  65              	@ 0 "" 2
  66              	.LVL0:
  67              		.loc 1 73 0
  68              		.thumb
  69 0004 2033     		adds	r3, r3, #32
  70              	.LVL1:
  71              		.loc 1 80 0
  72              	@ 80 "../../os/ports/GCC/ARMCMx/chcore_v7m.c" 1
  73 0006 83F30988 		msr     PSP, r3
  74              	@ 0 "" 2
  75              		.thumb
  76              	.LBB2:
  77              		.loc 1 81 0
  78 000a 0023     		movs	r3, #0
  79              	.LVL2:
  80              	@ 81 "../../os/ports/GCC/ARMCMx/chcore_v7m.c" 1
  81 000c 83F31188 		msr     BASEPRI, r3
  82              	@ 0 "" 2
  83              	.LVL3:
  84              		.thumb
  85              	.LBE2:
  86              		.loc 1 82 0
  87 0010 7047     		bx	lr
  88              		.cfi_endproc
  89              	.LFE8:
  90              		.size	SVCallVector, .-SVCallVector
  91 0012 00BFAFF3 		.section	.text._port_init,"ax",%progbits
  91      0080AFF3 
  91      0080AFF3 
  91      0080
  92              		.align	2
  93              		.p2align 4,,15
  94              		.global	_port_init
  95              		.thumb
  96              		.thumb_func
  97              		.type	_port_init, %function
  98              	_port_init:
  99              	.LFB9:
 100              		.loc 1 118 0
 101              		.cfi_startproc
 102              		@ args = 0, pretend = 0, frame = 0
 103              		@ frame_needed = 0, uses_anonymous_args = 0
 104 0000 08B5     		push	{r3, lr}
 105              	.LCFI0:
 106              		.cfi_def_cfa_offset 8
 107              		.cfi_offset 14, -4
 108              		.cfi_offset 3, -8
 109              		.loc 1 122 0
ARM GAS  /tmp/cc791jEN.s 			page 3


 110 0002 0022     		movs	r2, #0
 111              		.loc 1 121 0
 112 0004 4FF46D43 		mov	r3, #60672
 113 0008 CEF20003 		movt	r3, 57344
 114              		.loc 1 122 0
 115 000c C0F2FA52 		movt	r2, 1530
 116              		.loc 1 121 0
 117 0010 0021     		movs	r1, #0
 118 0012 9960     		str	r1, [r3, #8]
 119              		.loc 1 125 0
 120 0014 0720     		movs	r0, #7
 121 0016 1021     		movs	r1, #16
 122              		.loc 1 122 0
 123 0018 DA60     		str	r2, [r3, #12]
 124              		.loc 1 125 0
 125 001a FFF7FEFF 		bl	nvicSetSystemHandlerPriority
 126              		.loc 1 127 0
 127 001e 0A20     		movs	r0, #10
 128 0020 4FF40071 		mov	r1, #512
 129 0024 FFF7FEFF 		bl	nvicSetSystemHandlerPriority
 130              		.loc 1 129 0
 131 0028 0B20     		movs	r0, #11
 132 002a 8021     		movs	r1, #128
 133              		.loc 1 131 0
 134 002c BDE80840 		pop	{r3, lr}
 135              		.loc 1 129 0
 136 0030 FFF7FEBF 		b	nvicSetSystemHandlerPriority
 137              		.cfi_endproc
 138              	.LFE9:
 139              		.size	_port_init, .-_port_init
 140 0034 AFF30080 		.section	.text._port_irq_epilogue,"ax",%progbits
 140      AFF30080 
 140      AFF30080 
 141              		.align	2
 142              		.p2align 4,,15
 143              		.global	_port_irq_epilogue
 144              		.thumb
 145              		.thumb_func
 146              		.type	_port_irq_epilogue, %function
 147              	_port_irq_epilogue:
 148              	.LFB10:
 149              		.loc 1 148 0
 150              		.cfi_startproc
 151              		@ args = 0, pretend = 0, frame = 0
 152              		@ frame_needed = 0, uses_anonymous_args = 0
 153              		@ link register save eliminated.
 154              	.LBB3:
 155              		.loc 1 150 0
 156 0000 2023     		movs	r3, #32
 157              	.LVL4:
 158              	@ 150 "../../os/ports/GCC/ARMCMx/chcore_v7m.c" 1
 159 0002 83F31188 		msr     BASEPRI, r3
 160              	@ 0 "" 2
 161              	.LVL5:
 162              		.thumb
 163              	.LBE3:
 164              		.loc 1 151 0
ARM GAS  /tmp/cc791jEN.s 			page 4


 165 0006 4FF46D40 		mov	r0, #60672
 166 000a CEF20000 		movt	r0, 57344
 167 000e 4368     		ldr	r3, [r0, #4]
 168              	.LVL6:
 169 0010 13F40063 		ands	r3, r3, #2048
 170 0014 1FD0     		beq	.L5
 171              	.LBB4:
 172              		.loc 1 155 0
 173              	@ 155 "../../os/ports/GCC/ARMCMx/chcore_v7m.c" 1
 174 0016 EFF30982 		mrs     r2, PSP
 175              	@ 0 "" 2
 176              	.LVL7:
 177              		.loc 1 159 0
 178              		.thumb
 179 001a A2F1200C 		sub	ip, r2, #32
 180              		.loc 1 160 0
 181              	@ 160 "../../os/ports/GCC/ARMCMx/chcore_v7m.c" 1
 182 001e 8CF30988 		msr     PSP, ip
 183              	@ 0 "" 2
 184              		.loc 1 165 0
 185              		.thumb
 186 0022 40F20003 		movw	r3, #:lower16:rlist
 187 0026 C0F20003 		movt	r3, #:upper16:rlist
 188 002a 9969     		ldr	r1, [r3, #24]
 189              		.loc 1 161 0
 190 002c 4FF08070 		mov	r0, #16777216
 191 0030 42F8040C 		str	r0, [r2, #-4]
 192              		.loc 1 165 0
 193 0034 91B1     		cbz	r1, .L6
 194              		.loc 1 165 0 is_stmt 0 discriminator 1
 195 0036 1868     		ldr	r0, [r3, #0]
 196 0038 DB69     		ldr	r3, [r3, #28]
 197 003a 8168     		ldr	r1, [r0, #8]
 198 003c 9B68     		ldr	r3, [r3, #8]
 199 003e 9942     		cmp	r1, r3
 200 0040 94BF     		ite	ls
 201 0042 0023     		movls	r3, #0
 202 0044 0123     		movhi	r3, #1
 203 0046 9BB1     		cbz	r3, .L8
 204              	.L11:
 205              		.loc 1 167 0 is_stmt 1
 206 0048 40F20001 		movw	r1, #:lower16:_port_switch_from_isr
 207 004c C0F20001 		movt	r1, #:upper16:_port_switch_from_isr
 208 0050 42F8081C 		str	r1, [r2, #-8]
 209 0054 7047     		bx	lr
 210              	.LVL8:
 211              	.L5:
 212              	.LBE4:
 213              	.LBB5:
 214              		.loc 1 197 0
 215              	@ 197 "../../os/ports/GCC/ARMCMx/chcore_v7m.c" 1
 216 0056 83F31188 		msr     BASEPRI, r3
 217              	@ 0 "" 2
 218              	.LVL9:
 219              		.thumb
 220 005a 7047     		bx	lr
 221              	.LVL10:
ARM GAS  /tmp/cc791jEN.s 			page 5


 222              	.L6:
 223              	.LBE5:
 224              	.LBB6:
 225              		.loc 1 165 0 discriminator 2
 226 005c 1868     		ldr	r0, [r3, #0]
 227 005e DB69     		ldr	r3, [r3, #28]
 228 0060 8168     		ldr	r1, [r0, #8]
 229 0062 9B68     		ldr	r3, [r3, #8]
 230 0064 9942     		cmp	r1, r3
 231 0066 34BF     		ite	cc
 232 0068 0023     		movcc	r3, #0
 233 006a 0123     		movcs	r3, #1
 234 006c 002B     		cmp	r3, #0
 235 006e EBD1     		bne	.L11
 236              	.L8:
 237              		.loc 1 176 0
 238 0070 40F20003 		movw	r3, #:lower16:_port_exit_from_isr
 239 0074 C0F20003 		movt	r3, #:upper16:_port_exit_from_isr
 240 0078 42F8083C 		str	r3, [r2, #-8]
 241 007c 7047     		bx	lr
 242              	.LBE6:
 243              		.cfi_endproc
 244              	.LFE10:
 245              		.size	_port_irq_epilogue, .-_port_irq_epilogue
 246 007e 00BF     		.section	.text.SysTickVector,"ax",%progbits
 247              		.align	2
 248              		.p2align 4,,15
 249              		.global	SysTickVector
 250              		.thumb
 251              		.thumb_func
 252              		.type	SysTickVector, %function
 253              	SysTickVector:
 254              	.LFB7:
 255              		.loc 1 47 0
 256              		.cfi_startproc
 257              		@ args = 0, pretend = 0, frame = 0
 258              		@ frame_needed = 0, uses_anonymous_args = 0
 259 0000 08B5     		push	{r3, lr}
 260              	.LCFI1:
 261              		.cfi_def_cfa_offset 8
 262              		.cfi_offset 14, -4
 263              		.cfi_offset 3, -8
 264              	.LBB7:
 265              		.loc 1 51 0
 266 0002 2023     		movs	r3, #32
 267              	.LVL11:
 268              	@ 51 "../../os/ports/GCC/ARMCMx/chcore_v7m.c" 1
 269 0004 83F31188 		msr     BASEPRI, r3
 270              	@ 0 "" 2
 271              	.LVL12:
 272              		.thumb
 273              	.LBE7:
 274              		.loc 1 52 0
 275 0008 FFF7FEFF 		bl	chSysTimerHandlerI
 276              	.LVL13:
 277              	.LBB8:
 278              		.loc 1 53 0
ARM GAS  /tmp/cc791jEN.s 			page 6


 279 000c 0023     		movs	r3, #0
 280              	.LVL14:
 281              	@ 53 "../../os/ports/GCC/ARMCMx/chcore_v7m.c" 1
 282 000e 83F31188 		msr     BASEPRI, r3
 283              	@ 0 "" 2
 284              	.LVL15:
 285              		.thumb
 286              	.LBE8:
 287              		.loc 1 56 0
 288 0012 BDE80840 		pop	{r3, lr}
 289              		.loc 1 55 0
 290 0016 FFF7FEBF 		b	_port_irq_epilogue
 291              	.LVL16:
 292              		.cfi_endproc
 293              	.LFE7:
 294              		.size	SysTickVector, .-SysTickVector
 295              		.section	.text._port_switch,"ax",%progbits
 296              		.align	2
 297              		.p2align 4,,15
 298              		.global	_port_switch
 299              		.thumb
 300              		.thumb_func
 301              		.type	_port_switch, %function
 302              	_port_switch:
 303              	.LFB12:
 304              		.loc 1 236 0
 305              		.cfi_startproc
 306              		@ Naked Function: prologue and epilogue provided by programmer.
 307              		@ args = 0, pretend = 0, frame = 0
 308              		@ frame_needed = 0, uses_anonymous_args = 0
 309              	.LVL17:
 310              		.loc 1 238 0
 311              	@ 238 "../../os/ports/GCC/ARMCMx/chcore_v7m.c" 1
 312 0000 2DE9F04F 		push    {r4, r5, r6, r7, r8, r9, r10, r11, lr}
 313              	@ 0 "" 2
 314              		.loc 1 244 0
 315              	@ 244 "../../os/ports/GCC/ARMCMx/chcore_v7m.c" 1
 316 0004 C1F80CD0 		str     sp, [r1, #12]                          
 317 0008 D0F80CD0 		ldr     sp, [r0, #12]
 318              	@ 0 "" 2
 319              		.loc 1 250 0
 320              	@ 250 "../../os/ports/GCC/ARMCMx/chcore_v7m.c" 1
 321 000c BDE8F08F 		pop     {r4, r5, r6, r7, r8, r9, r10, r11, pc}
 322              	@ 0 "" 2
 323              		.loc 1 252 0
 324              		.thumb
 325              		.cfi_endproc
 326              	.LFE12:
 327              		.size	_port_switch, .-_port_switch
 328              		.section	.text._port_thread_start,"ax",%progbits
 329              		.align	2
 330              		.p2align 4,,15
 331              		.global	_port_thread_start
 332              		.thumb
 333              		.thumb_func
 334              		.type	_port_thread_start, %function
 335              	_port_thread_start:
ARM GAS  /tmp/cc791jEN.s 			page 7


 336              	.LFB13:
 337              		.loc 1 259 0
 338              		.cfi_startproc
 339              		@ args = 0, pretend = 0, frame = 0
 340              		@ frame_needed = 0, uses_anonymous_args = 0
 341              		@ link register save eliminated.
 342              	.LBB9:
 343              		.loc 1 261 0
 344 0000 0023     		movs	r3, #0
 345              	.LVL18:
 346              	@ 261 "../../os/ports/GCC/ARMCMx/chcore_v7m.c" 1
 347 0002 83F31188 		msr     BASEPRI, r3
 348              	@ 0 "" 2
 349              	.LVL19:
 350              		.thumb
 351              	.LBE9:
 352              		.loc 1 262 0
 353              	@ 262 "../../os/ports/GCC/ARMCMx/chcore_v7m.c" 1
 354 0006 2846     		mov     r0, r5                                 
 355 0008 A047     		blx     r4                                     
 356 000a FFF7FEFF 		bl      chThdExit
 357              	@ 0 "" 2
 358              		.loc 1 265 0
 359              		.thumb
 360 000e 7047     		bx	lr
 361              		.cfi_endproc
 362              	.LFE13:
 363              		.size	_port_thread_start, .-_port_thread_start
 364              		.text
 365              	.Letext0:
 366              		.file 2 "/opt/arm-2011q3/bin/../lib/gcc/arm-none-eabi/4.6.1/../../../../arm-none-eabi/include/stdi
 367              		.file 3 "../../os/ports/GCC/ARMCMx/chtypes.h"
 368              		.file 4 "../../os/kernel/include/chlists.h"
 369              		.file 5 "../../os/kernel/include/chthreads.h"
 370              		.file 6 "../../os/ports/GCC/ARMCMx/chcore_v7m.h"
 371              		.file 7 "../../os/ports/common/ARMCMx/nvic.h"
 372              		.file 8 "../../os/kernel/include/chschd.h"
 373              		.file 9 "../../os/kernel/include/chmtx.h"
