ARM GAS  /tmp/ccIhsxUJ.s 			page 1


   1              		.syntax unified
   2              		.cpu cortex-m3
   3              		.fpu softvfp
   4              		.eabi_attribute 20, 1
   5              		.eabi_attribute 21, 1
   6              		.eabi_attribute 23, 3
   7              		.eabi_attribute 24, 1
   8              		.eabi_attribute 25, 1
   9              		.eabi_attribute 26, 1
  10              		.eabi_attribute 30, 2
  11              		.eabi_attribute 34, 1
  12              		.eabi_attribute 18, 4
  13              		.thumb
  14              		.file	"serial.c"
  15              		.text
  16              	.Ltext0:
  17              		.cfi_sections	.debug_frame
  18              		.section	.text.putwouldblock,"ax",%progbits
  19              		.align	2
  20              		.p2align 4,,15
  21              		.thumb
  22              		.thumb_func
  23              		.type	putwouldblock, %function
  24              	putwouldblock:
  25              	.LFB38:
  26              		.file 1 "../../os/hal/src/serial.c"
  27              		.loc 1 74 0
  28              		.cfi_startproc
  29              		@ args = 0, pretend = 0, frame = 0
  30              		@ frame_needed = 0, uses_anonymous_args = 0
  31              		@ link register save eliminated.
  32              	.LVL0:
  33              		.loc 1 76 0
  34 0000 806B     		ldr	r0, [r0, #56]
  35              	.LVL1:
  36              		.loc 1 77 0
  37 0002 D0F10100 		rsbs	r0, r0, #1
  38 0006 38BF     		it	cc
  39 0008 0020     		movcc	r0, #0
  40 000a 7047     		bx	lr
  41              		.cfi_endproc
  42              	.LFE38:
  43              		.size	putwouldblock, .-putwouldblock
  44 000c AFF30080 		.section	.text.getwouldblock,"ax",%progbits
  45              		.align	2
  46              		.p2align 4,,15
  47              		.thumb
  48              		.thumb_func
  49              		.type	getwouldblock, %function
  50              	getwouldblock:
  51              	.LFB39:
  52              		.loc 1 79 0
  53              		.cfi_startproc
  54              		@ args = 0, pretend = 0, frame = 0
  55              		@ frame_needed = 0, uses_anonymous_args = 0
  56              		@ link register save eliminated.
  57              	.LVL2:
ARM GAS  /tmp/ccIhsxUJ.s 			page 2


  58              		.loc 1 81 0
  59 0000 8069     		ldr	r0, [r0, #24]
  60              	.LVL3:
  61              		.loc 1 82 0
  62 0002 D0F10100 		rsbs	r0, r0, #1
  63 0006 38BF     		it	cc
  64 0008 0020     		movcc	r0, #0
  65 000a 7047     		bx	lr
  66              		.cfi_endproc
  67              	.LFE39:
  68              		.size	getwouldblock, .-getwouldblock
  69 000c AFF30080 		.section	.text.getflags,"ax",%progbits
  70              		.align	2
  71              		.p2align 4,,15
  72              		.thumb
  73              		.thumb_func
  74              		.type	getflags, %function
  75              	getflags:
  76              	.LFB44:
  77              		.loc 1 104 0
  78              		.cfi_startproc
  79              		@ args = 0, pretend = 0, frame = 0
  80              		@ frame_needed = 0, uses_anonymous_args = 0
  81              		@ link register save eliminated.
  82              	.LVL4:
  83              		.loc 1 104 0
  84 0000 0246     		mov	r2, r0
  85              	.LBB2:
  86              		.loc 1 105 0
  87 0002 2023     		movs	r3, #32
  88              	.LVL5:
  89              	@ 105 "../../os/hal/src/serial.c" 1
  90 0004 83F31188 		msr     BASEPRI, r3
  91              	@ 0 "" 2
  92              	.LVL6:
  93              		.thumb
  94              	.LBE2:
  95 0008 0021     		movs	r1, #0
  96 000a 8068     		ldr	r0, [r0, #8]
  97              	.LVL7:
  98              	.LBB3:
  99 000c 0B46     		mov	r3, r1
 100              	.LVL8:
 101              	.LBE3:
 102 000e 9160     		str	r1, [r2, #8]
 103              	.LBB4:
 104              	@ 105 "../../os/hal/src/serial.c" 1
 105 0010 83F31188 		msr     BASEPRI, r3
 106              	@ 0 "" 2
 107              	.LVL9:
 108              		.thumb
 109              	.LBE4:
 110              		.loc 1 106 0
 111 0014 7047     		bx	lr
 112              		.cfi_endproc
 113              	.LFE44:
 114              		.size	getflags, .-getflags
ARM GAS  /tmp/ccIhsxUJ.s 			page 3


 115 0016 00BFAFF3 		.section	.text.readt,"ax",%progbits
 115      0080AFF3 
 115      0080
 116              		.align	2
 117              		.p2align 4,,15
 118              		.thumb
 119              		.thumb_func
 120              		.type	readt, %function
 121              	readt:
 122              	.LFB43:
 123              		.loc 1 99 0
 124              		.cfi_startproc
 125              		@ args = 0, pretend = 0, frame = 0
 126              		@ frame_needed = 0, uses_anonymous_args = 0
 127              		@ link register save eliminated.
 128              	.LVL10:
 129              		.loc 1 101 0
 130 0000 1030     		adds	r0, r0, #16
 131              	.LVL11:
 132              		.loc 1 102 0
 133              		.loc 1 101 0
 134 0002 FFF7FEBF 		b	chIQReadTimeout
 135              	.LVL12:
 136              	.LVL13:
 137              	.LVL14:
 138              	.LVL15:
 139              		.cfi_endproc
 140              	.LFE43:
 141              		.size	readt, .-readt
 142 0006 00BFAFF3 		.section	.text.reads,"ax",%progbits
 142      0080AFF3 
 142      0080
 143              		.align	2
 144              		.p2align 4,,15
 145              		.thumb
 146              		.thumb_func
 147              		.type	reads, %function
 148              	reads:
 149              	.LFB37:
 150              		.loc 1 68 0
 151              		.cfi_startproc
 152              		@ args = 0, pretend = 0, frame = 0
 153              		@ frame_needed = 0, uses_anonymous_args = 0
 154              		@ link register save eliminated.
 155              	.LVL16:
 156              		.loc 1 70 0
 157 0000 1030     		adds	r0, r0, #16
 158              	.LVL17:
 159 0002 4FF0FF33 		mov	r3, #-1
 160              		.loc 1 72 0
 161              		.loc 1 70 0
 162 0006 FFF7FEBF 		b	chIQReadTimeout
 163              	.LVL18:
 164              	.LVL19:
 165              	.LVL20:
 166              		.cfi_endproc
 167              	.LFE37:
ARM GAS  /tmp/ccIhsxUJ.s 			page 4


 168              		.size	reads, .-reads
 169 000a 00BFAFF3 		.section	.text.writet,"ax",%progbits
 169      0080
 170              		.align	2
 171              		.p2align 4,,15
 172              		.thumb
 173              		.thumb_func
 174              		.type	writet, %function
 175              	writet:
 176              	.LFB42:
 177              		.loc 1 94 0
 178              		.cfi_startproc
 179              		@ args = 0, pretend = 0, frame = 0
 180              		@ frame_needed = 0, uses_anonymous_args = 0
 181              		@ link register save eliminated.
 182              	.LVL21:
 183              		.loc 1 96 0
 184 0000 3030     		adds	r0, r0, #48
 185              	.LVL22:
 186              		.loc 1 97 0
 187              		.loc 1 96 0
 188 0002 FFF7FEBF 		b	chOQWriteTimeout
 189              	.LVL23:
 190              	.LVL24:
 191              	.LVL25:
 192              	.LVL26:
 193              		.cfi_endproc
 194              	.LFE42:
 195              		.size	writet, .-writet
 196 0006 00BFAFF3 		.section	.text.writes,"ax",%progbits
 196      0080AFF3 
 196      0080
 197              		.align	2
 198              		.p2align 4,,15
 199              		.thumb
 200              		.thumb_func
 201              		.type	writes, %function
 202              	writes:
 203              	.LFB36:
 204              		.loc 1 62 0
 205              		.cfi_startproc
 206              		@ args = 0, pretend = 0, frame = 0
 207              		@ frame_needed = 0, uses_anonymous_args = 0
 208              		@ link register save eliminated.
 209              	.LVL27:
 210              		.loc 1 64 0
 211 0000 3030     		adds	r0, r0, #48
 212              	.LVL28:
 213 0002 4FF0FF33 		mov	r3, #-1
 214              		.loc 1 66 0
 215              		.loc 1 64 0
 216 0006 FFF7FEBF 		b	chOQWriteTimeout
 217              	.LVL29:
 218              	.LVL30:
 219              	.LVL31:
 220              		.cfi_endproc
 221              	.LFE36:
ARM GAS  /tmp/ccIhsxUJ.s 			page 5


 222              		.size	writes, .-writes
 223 000a 00BFAFF3 		.section	.text.gett,"ax",%progbits
 223      0080
 224              		.align	2
 225              		.p2align 4,,15
 226              		.thumb
 227              		.thumb_func
 228              		.type	gett, %function
 229              	gett:
 230              	.LFB41:
 231              		.loc 1 89 0
 232              		.cfi_startproc
 233              		@ args = 0, pretend = 0, frame = 0
 234              		@ frame_needed = 0, uses_anonymous_args = 0
 235              		@ link register save eliminated.
 236              	.LVL32:
 237              		.loc 1 91 0
 238 0000 1030     		adds	r0, r0, #16
 239              	.LVL33:
 240              		.loc 1 92 0
 241              		.loc 1 91 0
 242 0002 FFF7FEBF 		b	chIQGetTimeout
 243              	.LVL34:
 244              	.LVL35:
 245              		.cfi_endproc
 246              	.LFE41:
 247              		.size	gett, .-gett
 248 0006 00BFAFF3 		.section	.text.putt,"ax",%progbits
 248      0080AFF3 
 248      0080
 249              		.align	2
 250              		.p2align 4,,15
 251              		.thumb
 252              		.thumb_func
 253              		.type	putt, %function
 254              	putt:
 255              	.LFB40:
 256              		.loc 1 84 0
 257              		.cfi_startproc
 258              		@ args = 0, pretend = 0, frame = 0
 259              		@ frame_needed = 0, uses_anonymous_args = 0
 260              		@ link register save eliminated.
 261              	.LVL36:
 262              		.loc 1 86 0
 263 0000 3030     		adds	r0, r0, #48
 264              	.LVL37:
 265              		.loc 1 87 0
 266              		.loc 1 86 0
 267 0002 FFF7FEBF 		b	chOQPutTimeout
 268              	.LVL38:
 269              	.LVL39:
 270              	.LVL40:
 271              		.cfi_endproc
 272              	.LFE40:
 273              		.size	putt, .-putt
 274 0006 00BFAFF3 		.section	.text.sdInit,"ax",%progbits
 274      0080AFF3 
ARM GAS  /tmp/ccIhsxUJ.s 			page 6


 274      0080
 275              		.align	2
 276              		.p2align 4,,15
 277              		.global	sdInit
 278              		.thumb
 279              		.thumb_func
 280              		.type	sdInit, %function
 281              	sdInit:
 282              	.LFB45:
 283              		.loc 1 125 0
 284              		.cfi_startproc
 285              		@ args = 0, pretend = 0, frame = 0
 286              		@ frame_needed = 0, uses_anonymous_args = 0
 287              		@ link register save eliminated.
 288              		.loc 1 128 0
 289              		.loc 1 127 0
 290 0000 FFF7FEBF 		b	sd_lld_init
 291              		.cfi_endproc
 292              	.LFE45:
 293              		.size	sdInit, .-sdInit
 294 0004 AFF30080 		.section	.text.sdObjectInit,"ax",%progbits
 294      AFF30080 
 294      AFF30080 
 295              		.align	2
 296              		.p2align 4,,15
 297              		.global	sdObjectInit
 298              		.thumb
 299              		.thumb_func
 300              		.type	sdObjectInit, %function
 301              	sdObjectInit:
 302              	.LFB46:
 303              		.loc 1 145 0
 304              		.cfi_startproc
 305              		@ args = 0, pretend = 0, frame = 0
 306              		@ frame_needed = 0, uses_anonymous_args = 0
 307              	.LVL41:
 308 0000 70B5     		push	{r4, r5, r6, lr}
 309              	.LCFI0:
 310              		.cfi_def_cfa_offset 16
 311              		.cfi_offset 14, -4
 312              		.cfi_offset 6, -8
 313              		.cfi_offset 5, -12
 314              		.cfi_offset 4, -16
 315              		.loc 1 145 0
 316 0002 0446     		mov	r4, r0
 317              		.loc 1 147 0
 318 0004 40F20000 		movw	r0, #:lower16:.LANCHOR0
 319              	.LVL42:
 320 0008 2646     		mov	r6, r4
 321 000a C0F20000 		movt	r0, #:upper16:.LANCHOR0
 322 000e 46F8040B 		str	r0, [r6], #4
 323              		.loc 1 148 0
 324 0012 6660     		str	r6, [r4, #4]
 325              		.loc 1 149 0
 326 0014 0026     		movs	r6, #0
 327 0016 A660     		str	r6, [r4, #8]
 328              		.loc 1 150 0
ARM GAS  /tmp/ccIhsxUJ.s 			page 7


 329 0018 0126     		movs	r6, #1
 330              		.loc 1 145 0
 331 001a 0B46     		mov	r3, r1
 332 001c 1546     		mov	r5, r2
 333              		.loc 1 151 0
 334 001e 04F11000 		add	r0, r4, #16
 335 0022 04F15001 		add	r1, r4, #80
 336              	.LVL43:
 337 0026 1022     		movs	r2, #16
 338              	.LVL44:
 339              		.loc 1 150 0
 340 0028 2673     		strb	r6, [r4, #12]
 341              		.loc 1 151 0
 342 002a FFF7FEFF 		bl	chIQInit
 343              	.LVL45:
 344              		.loc 1 152 0
 345 002e 04F13000 		add	r0, r4, #48
 346 0032 04F16001 		add	r1, r4, #96
 347 0036 1022     		movs	r2, #16
 348 0038 2B46     		mov	r3, r5
 349              		.loc 1 153 0
 350 003a BDE87040 		pop	{r4, r5, r6, lr}
 351              		.loc 1 152 0
 352 003e FFF7FEBF 		b	chOQInit
 353              		.cfi_endproc
 354              	.LFE46:
 355              		.size	sdObjectInit, .-sdObjectInit
 356 0042 00BFAFF3 		.section	.text.sdStart,"ax",%progbits
 356      0080AFF3 
 356      0080AFF3 
 356      0080
 357              		.align	2
 358              		.p2align 4,,15
 359              		.global	sdStart
 360              		.thumb
 361              		.thumb_func
 362              		.type	sdStart, %function
 363              	sdStart:
 364              	.LFB47:
 365              		.loc 1 165 0
 366              		.cfi_startproc
 367              		@ args = 0, pretend = 0, frame = 0
 368              		@ frame_needed = 0, uses_anonymous_args = 0
 369              	.LVL46:
 370 0000 10B5     		push	{r4, lr}
 371              	.LCFI1:
 372              		.cfi_def_cfa_offset 8
 373              		.cfi_offset 14, -4
 374              		.cfi_offset 4, -8
 375              	.LBB5:
 376              		.loc 1 169 0
 377 0002 2023     		movs	r3, #32
 378              	.LVL47:
 379              	.LBE5:
 380              		.loc 1 165 0
 381 0004 0446     		mov	r4, r0
 382              	.LBB6:
ARM GAS  /tmp/ccIhsxUJ.s 			page 8


 383              		.loc 1 169 0
 384              	@ 169 "../../os/hal/src/serial.c" 1
 385 0006 83F31188 		msr     BASEPRI, r3
 386              	@ 0 "" 2
 387              	.LVL48:
 388              		.thumb
 389              	.LBE6:
 390              		.loc 1 173 0
 391 000a FFF7FEFF 		bl	sd_lld_start
 392              	.LVL49:
 393              		.loc 1 174 0
 394 000e 0223     		movs	r3, #2
 395 0010 2373     		strb	r3, [r4, #12]
 396              	.LBB7:
 397              		.loc 1 175 0
 398 0012 0023     		movs	r3, #0
 399              	.LVL50:
 400              	@ 175 "../../os/hal/src/serial.c" 1
 401 0014 83F31188 		msr     BASEPRI, r3
 402              	@ 0 "" 2
 403              	.LVL51:
 404              		.thumb
 405              	.LBE7:
 406              		.loc 1 176 0
 407 0018 10BD     		pop	{r4, pc}
 408              		.cfi_endproc
 409              	.LFE47:
 410              		.size	sdStart, .-sdStart
 411 001a 00BFAFF3 		.section	.text.sdStop,"ax",%progbits
 411      0080
 412              		.align	2
 413              		.p2align 4,,15
 414              		.global	sdStop
 415              		.thumb
 416              		.thumb_func
 417              		.type	sdStop, %function
 418              	sdStop:
 419              	.LFB48:
 420              		.loc 1 187 0
 421              		.cfi_startproc
 422              		@ args = 0, pretend = 0, frame = 0
 423              		@ frame_needed = 0, uses_anonymous_args = 0
 424              	.LVL52:
 425 0000 10B5     		push	{r4, lr}
 426              	.LCFI2:
 427              		.cfi_def_cfa_offset 8
 428              		.cfi_offset 14, -4
 429              		.cfi_offset 4, -8
 430              	.LBB8:
 431              		.loc 1 191 0
 432 0002 2023     		movs	r3, #32
 433              	.LVL53:
 434              	.LBE8:
 435              		.loc 1 187 0
 436 0004 0446     		mov	r4, r0
 437              	.LBB9:
 438              		.loc 1 191 0
ARM GAS  /tmp/ccIhsxUJ.s 			page 9


 439              	@ 191 "../../os/hal/src/serial.c" 1
 440 0006 83F31188 		msr     BASEPRI, r3
 441              	@ 0 "" 2
 442              	.LVL54:
 443              		.thumb
 444              	.LBE9:
 445              		.loc 1 195 0
 446 000a FFF7FEFF 		bl	sd_lld_stop
 447              	.LVL55:
 448              		.loc 1 196 0
 449 000e 0123     		movs	r3, #1
 450 0010 2373     		strb	r3, [r4, #12]
 451              		.loc 1 197 0
 452 0012 04F13000 		add	r0, r4, #48
 453 0016 FFF7FEFF 		bl	chOQResetI
 454              		.loc 1 198 0
 455 001a 04F11000 		add	r0, r4, #16
 456 001e FFF7FEFF 		bl	chIQResetI
 457              		.loc 1 199 0
 458 0022 FFF7FEFF 		bl	chSchRescheduleS
 459              	.LBB10:
 460              		.loc 1 200 0
 461 0026 0023     		movs	r3, #0
 462              	.LVL56:
 463              	@ 200 "../../os/hal/src/serial.c" 1
 464 0028 83F31188 		msr     BASEPRI, r3
 465              	@ 0 "" 2
 466              	.LVL57:
 467              		.thumb
 468              	.LBE10:
 469              		.loc 1 201 0
 470 002c 10BD     		pop	{r4, pc}
 471              		.cfi_endproc
 472              	.LFE48:
 473              		.size	sdStop, .-sdStop
 474 002e 00BF     		.section	.text.sdIncomingDataI,"ax",%progbits
 475              		.align	2
 476              		.p2align 4,,15
 477              		.global	sdIncomingDataI
 478              		.thumb
 479              		.thumb_func
 480              		.type	sdIncomingDataI, %function
 481              	sdIncomingDataI:
 482              	.LFB49:
 483              		.loc 1 219 0
 484              		.cfi_startproc
 485              		@ args = 0, pretend = 0, frame = 0
 486              		@ frame_needed = 0, uses_anonymous_args = 0
 487              	.LVL58:
 488 0000 38B5     		push	{r3, r4, r5, lr}
 489              	.LCFI3:
 490              		.cfi_def_cfa_offset 16
 491              		.cfi_offset 14, -4
 492              		.cfi_offset 5, -8
 493              		.cfi_offset 4, -12
 494              		.cfi_offset 3, -16
 495              		.loc 1 224 0
ARM GAS  /tmp/ccIhsxUJ.s 			page 10


 496 0002 8369     		ldr	r3, [r0, #24]
 497              		.loc 1 219 0
 498 0004 0446     		mov	r4, r0
 499 0006 0D46     		mov	r5, r1
 500              		.loc 1 224 0
 501 0008 3BB1     		cbz	r3, .L18
 502              		.loc 1 226 0
 503 000a 04F11000 		add	r0, r4, #16
 504              	.LVL59:
 505 000e 2946     		mov	r1, r5
 506              	.LVL60:
 507 0010 FFF7FEFF 		bl	chIQPutI
 508 0014 0028     		cmp	r0, #0
 509 0016 0FDB     		blt	.L19
 510              	.L14:
 511 0018 38BD     		pop	{r3, r4, r5, pc}
 512              	.LVL61:
 513              	.L18:
 514              		.loc 1 225 0
 515 001a 8168     		ldr	r1, [r0, #8]
 516              	.LVL62:
 517 001c 0430     		adds	r0, r0, #4
 518 001e 41F00402 		orr	r2, r1, #4
 519 0022 A260     		str	r2, [r4, #8]
 520 0024 1946     		mov	r1, r3
 521 0026 FFF7FEFF 		bl	chEvtBroadcastFlagsI
 522              		.loc 1 226 0
 523 002a 04F11000 		add	r0, r4, #16
 524 002e 2946     		mov	r1, r5
 525 0030 FFF7FEFF 		bl	chIQPutI
 526 0034 0028     		cmp	r0, #0
 527 0036 EFDA     		bge	.L14
 528              	.L19:
 529              		.loc 1 227 0
 530 0038 A268     		ldr	r2, [r4, #8]
 531 003a 201D     		adds	r0, r4, #4
 532 003c 42F08003 		orr	r3, r2, #128
 533 0040 0021     		movs	r1, #0
 534 0042 A360     		str	r3, [r4, #8]
 535              		.loc 1 228 0
 536 0044 BDE83840 		pop	{r3, r4, r5, lr}
 537              		.loc 1 227 0
 538 0048 FFF7FEBF 		b	chEvtBroadcastFlagsI
 539              		.cfi_endproc
 540              	.LFE49:
 541              		.size	sdIncomingDataI, .-sdIncomingDataI
 542 004c AFF30080 		.section	.text.sdRequestDataI,"ax",%progbits
 543              		.align	2
 544              		.p2align 4,,15
 545              		.global	sdRequestDataI
 546              		.thumb
 547              		.thumb_func
 548              		.type	sdRequestDataI, %function
 549              	sdRequestDataI:
 550              	.LFB50:
 551              		.loc 1 245 0
 552              		.cfi_startproc
ARM GAS  /tmp/ccIhsxUJ.s 			page 11


 553              		@ args = 0, pretend = 0, frame = 0
 554              		@ frame_needed = 0, uses_anonymous_args = 0
 555              	.LVL63:
 556 0000 38B5     		push	{r3, r4, r5, lr}
 557              	.LCFI4:
 558              		.cfi_def_cfa_offset 16
 559              		.cfi_offset 14, -4
 560              		.cfi_offset 5, -8
 561              		.cfi_offset 4, -12
 562              		.cfi_offset 3, -16
 563              		.loc 1 245 0
 564 0002 0546     		mov	r5, r0
 565              		.loc 1 251 0
 566 0004 3030     		adds	r0, r0, #48
 567              	.LVL64:
 568 0006 FFF7FEFF 		bl	chOQGetI
 569              	.LVL65:
 570              		.loc 1 252 0
 571 000a 041E     		subs	r4, r0, #0
 572 000c 01DB     		blt	.L22
 573              		.loc 1 255 0
 574 000e 2046     		mov	r0, r4
 575 0010 38BD     		pop	{r3, r4, r5, pc}
 576              	.L22:
 577              		.loc 1 253 0
 578 0012 A968     		ldr	r1, [r5, #8]
 579 0014 281D     		adds	r0, r5, #4
 580              	.LVL66:
 581 0016 41F00803 		orr	r3, r1, #8
 582 001a AB60     		str	r3, [r5, #8]
 583 001c 0021     		movs	r1, #0
 584 001e FFF7FEFF 		bl	chEvtBroadcastFlagsI
 585              		.loc 1 255 0
 586 0022 2046     		mov	r0, r4
 587 0024 38BD     		pop	{r3, r4, r5, pc}
 588              		.cfi_endproc
 589              	.LFE50:
 590              		.size	sdRequestDataI, .-sdRequestDataI
 591 0026 00BFAFF3 		.section	.rodata.vmt,"a",%progbits
 591      0080AFF3 
 591      0080
 592              		.align	2
 593              		.set	.LANCHOR0,. + 0
 594              		.type	vmt, %object
 595              		.size	vmt, 36
 596              	vmt:
 597 0000 00000000 		.word	writes
 598 0004 00000000 		.word	reads
 599 0008 00000000 		.word	putwouldblock
 600 000c 00000000 		.word	getwouldblock
 601 0010 00000000 		.word	putt
 602 0014 00000000 		.word	gett
 603 0018 00000000 		.word	writet
 604 001c 00000000 		.word	readt
 605 0020 00000000 		.word	getflags
 606              		.text
 607              	.Letext0:
ARM GAS  /tmp/ccIhsxUJ.s 			page 12


 608              		.file 2 "/opt/arm-2011q3/bin/../lib/gcc/arm-none-eabi/4.6.1/include/stddef.h"
 609              		.file 3 "/opt/arm-2011q3/bin/../lib/gcc/arm-none-eabi/4.6.1/../../../../arm-none-eabi/include/stdi
 610              		.file 4 "../../os/ports/GCC/ARMCMx/chtypes.h"
 611              		.file 5 "../../os/kernel/include/chlists.h"
 612              		.file 6 "../../os/kernel/include/chthreads.h"
 613              		.file 7 "../../os/ports/GCC/ARMCMx/chcore_v7m.h"
 614              		.file 8 "../../os/kernel/include/chmtx.h"
 615              		.file 9 "../../os/kernel/include/chevents.h"
 616              		.file 10 "../../os/kernel/include/chqueues.h"
 617              		.file 11 "../../os/kernel/include/chioch.h"
 618              		.file 12 "../../os/hal/platforms/AT91SAM3/at91lib/SAM3N.h"
 619              		.file 13 "../../os/hal/include/serial.h"
 620              		.file 14 "../../os/hal/platforms/AT91SAM3/serial_lld.h"
 621              		.file 15 "../../os/hal/platforms/AT91SAM3/core_cm3.h"
