ARM GAS  /tmp/ccL5HPqH.s 			page 1


   1              		.syntax unified
   2              		.cpu cortex-m3
   3              		.fpu softvfp
   4              		.eabi_attribute 20, 1
   5              		.eabi_attribute 21, 1
   6              		.eabi_attribute 23, 3
   7              		.eabi_attribute 24, 1
   8              		.eabi_attribute 25, 1
   9              		.eabi_attribute 26, 1
  10              		.eabi_attribute 30, 2
  11              		.eabi_attribute 34, 1
  12              		.eabi_attribute 18, 4
  13              		.thumb
  14              		.file	"chmempools.c"
  15              		.text
  16              	.Ltext0:
  17              		.cfi_sections	.debug_frame
  18              		.section	.text.chPoolInit,"ax",%progbits
  19              		.align	2
  20              		.p2align 4,,15
  21              		.global	chPoolInit
  22              		.thumb
  23              		.thumb_func
  24              		.type	chPoolInit, %function
  25              	chPoolInit:
  26              	.LFB7:
  27              		.file 1 "../../os/kernel/src/chmempools.c"
  28              		.loc 1 61 0
  29              		.cfi_startproc
  30              		@ args = 0, pretend = 0, frame = 0
  31              		@ frame_needed = 0, uses_anonymous_args = 0
  32              		@ link register save eliminated.
  33              	.LVL0:
  34              		.loc 1 66 0
  35 0000 0731     		adds	r1, r1, #7
  36              	.LVL1:
  37 0002 21F00701 		bic	r1, r1, #7
  38              	.LVL2:
  39              		.loc 1 65 0
  40 0006 0023     		movs	r3, #0
  41 0008 0360     		str	r3, [r0, #0]
  42              		.loc 1 66 0
  43 000a 4160     		str	r1, [r0, #4]
  44              		.loc 1 67 0
  45 000c 8260     		str	r2, [r0, #8]
  46              		.loc 1 68 0
  47 000e 7047     		bx	lr
  48              		.cfi_endproc
  49              	.LFE7:
  50              		.size	chPoolInit, .-chPoolInit
  51              		.section	.text.chPoolAllocI,"ax",%progbits
  52              		.align	2
  53              		.p2align 4,,15
  54              		.global	chPoolAllocI
  55              		.thumb
  56              		.thumb_func
  57              		.type	chPoolAllocI, %function
ARM GAS  /tmp/ccL5HPqH.s 			page 2


  58              	chPoolAllocI:
  59              	.LFB8:
  60              		.loc 1 79 0
  61              		.cfi_startproc
  62              		@ args = 0, pretend = 0, frame = 0
  63              		@ frame_needed = 0, uses_anonymous_args = 0
  64              	.LVL3:
  65 0000 0246     		mov	r2, r0
  66              		.loc 1 85 0
  67 0002 0068     		ldr	r0, [r0, #0]
  68              	.LVL4:
  69              		.loc 1 79 0
  70 0004 08B5     		push	{r3, lr}
  71              	.LCFI0:
  72              		.cfi_def_cfa_offset 8
  73              		.cfi_offset 14, -4
  74              		.cfi_offset 3, -8
  75              		.loc 1 85 0
  76 0006 10B1     		cbz	r0, .L3
  77              		.loc 1 86 0
  78 0008 0368     		ldr	r3, [r0, #0]
  79 000a 1360     		str	r3, [r2, #0]
  80 000c 08BD     		pop	{r3, pc}
  81              	.L3:
  82              		.loc 1 87 0
  83 000e 9368     		ldr	r3, [r2, #8]
  84 0010 0BB1     		cbz	r3, .L4
  85              		.loc 1 88 0
  86 0012 5068     		ldr	r0, [r2, #4]
  87 0014 9847     		blx	r3
  88              	.LVL5:
  89              	.L4:
  90              		.loc 1 90 0
  91 0016 08BD     		pop	{r3, pc}
  92              		.cfi_endproc
  93              	.LFE8:
  94              		.size	chPoolAllocI, .-chPoolAllocI
  95 0018 AFF30080 		.section	.text.chPoolAlloc,"ax",%progbits
  95      AFF30080 
  96              		.align	2
  97              		.p2align 4,,15
  98              		.global	chPoolAlloc
  99              		.thumb
 100              		.thumb_func
 101              		.type	chPoolAlloc, %function
 102              	chPoolAlloc:
 103              	.LFB9:
 104              		.loc 1 101 0
 105              		.cfi_startproc
 106              		@ args = 0, pretend = 0, frame = 0
 107              		@ frame_needed = 0, uses_anonymous_args = 0
 108              	.LVL6:
 109 0000 08B5     		push	{r3, lr}
 110              	.LCFI1:
 111              		.cfi_def_cfa_offset 8
 112              		.cfi_offset 14, -4
 113              		.cfi_offset 3, -8
ARM GAS  /tmp/ccL5HPqH.s 			page 3


 114              		.loc 1 101 0
 115 0002 0246     		mov	r2, r0
 116              	.LBB10:
 117              		.loc 1 104 0
 118 0004 2023     		movs	r3, #32
 119              	.LVL7:
 120              	@ 104 "../../os/kernel/src/chmempools.c" 1
 121 0006 83F31188 		msr     BASEPRI, r3
 122              	@ 0 "" 2
 123              	.LVL8:
 124              		.thumb
 125              	.LBE10:
 126              	.LBB11:
 127              	.LBB12:
 128              		.loc 1 85 0
 129 000a 0068     		ldr	r0, [r0, #0]
 130              	.LVL9:
 131 000c 28B1     		cbz	r0, .L7
 132              		.loc 1 86 0
 133 000e 0368     		ldr	r3, [r0, #0]
 134              	.LVL10:
 135 0010 1360     		str	r3, [r2, #0]
 136              	.LVL11:
 137              	.L8:
 138              	.LBE12:
 139              	.LBE11:
 140              	.LBB14:
 141              		.loc 1 106 0
 142 0012 0023     		movs	r3, #0
 143              	.LVL12:
 144              	@ 106 "../../os/kernel/src/chmempools.c" 1
 145 0014 83F31188 		msr     BASEPRI, r3
 146              	@ 0 "" 2
 147              	.LVL13:
 148              		.thumb
 149              	.LBE14:
 150              		.loc 1 108 0
 151 0018 08BD     		pop	{r3, pc}
 152              	.LVL14:
 153              	.L7:
 154              	.LBB15:
 155              	.LBB13:
 156              		.loc 1 87 0
 157 001a 9368     		ldr	r3, [r2, #8]
 158              	.LVL15:
 159 001c 002B     		cmp	r3, #0
 160 001e F8D0     		beq	.L8
 161              		.loc 1 88 0
 162 0020 5068     		ldr	r0, [r2, #4]
 163 0022 9847     		blx	r3
 164              	.LVL16:
 165              	.LBE13:
 166              	.LBE15:
 167              	.LBB16:
 168              		.loc 1 106 0
 169 0024 0023     		movs	r3, #0
 170              	@ 106 "../../os/kernel/src/chmempools.c" 1
ARM GAS  /tmp/ccL5HPqH.s 			page 4


 171 0026 83F31188 		msr     BASEPRI, r3
 172              	@ 0 "" 2
 173              	.LVL17:
 174              		.thumb
 175              	.LBE16:
 176              		.loc 1 108 0
 177 002a 08BD     		pop	{r3, pc}
 178              		.cfi_endproc
 179              	.LFE9:
 180              		.size	chPoolAlloc, .-chPoolAlloc
 181 002c AFF30080 		.section	.text.chPoolFreeI,"ax",%progbits
 182              		.align	2
 183              		.p2align 4,,15
 184              		.global	chPoolFreeI
 185              		.thumb
 186              		.thumb_func
 187              		.type	chPoolFreeI, %function
 188              	chPoolFreeI:
 189              	.LFB10:
 190              		.loc 1 122 0
 191              		.cfi_startproc
 192              		@ args = 0, pretend = 0, frame = 0
 193              		@ frame_needed = 0, uses_anonymous_args = 0
 194              		@ link register save eliminated.
 195              	.LVL18:
 196              		.loc 1 129 0
 197 0000 0368     		ldr	r3, [r0, #0]
 198              	.LVL19:
 199 0002 0B60     		str	r3, [r1, #0]
 200              		.loc 1 130 0
 201 0004 0160     		str	r1, [r0, #0]
 202              		.loc 1 131 0
 203 0006 7047     		bx	lr
 204              		.cfi_endproc
 205              	.LFE10:
 206              		.size	chPoolFreeI, .-chPoolFreeI
 207 0008 AFF30080 		.section	.text.chPoolFree,"ax",%progbits
 207      AFF30080 
 208              		.align	2
 209              		.p2align 4,,15
 210              		.global	chPoolFree
 211              		.thumb
 212              		.thumb_func
 213              		.type	chPoolFree, %function
 214              	chPoolFree:
 215              	.LFB11:
 216              		.loc 1 145 0
 217              		.cfi_startproc
 218              		@ args = 0, pretend = 0, frame = 0
 219              		@ frame_needed = 0, uses_anonymous_args = 0
 220              		@ link register save eliminated.
 221              	.LVL20:
 222              	.LBB17:
 223              		.loc 1 147 0
 224 0000 2023     		movs	r3, #32
 225              	.LVL21:
 226              	@ 147 "../../os/kernel/src/chmempools.c" 1
ARM GAS  /tmp/ccL5HPqH.s 			page 5


 227 0002 83F31188 		msr     BASEPRI, r3
 228              	@ 0 "" 2
 229              	.LVL22:
 230              		.thumb
 231              	.LBE17:
 232              	.LBB18:
 233              	.LBB19:
 234              		.loc 1 129 0
 235 0006 0268     		ldr	r2, [r0, #0]
 236              	.LBE19:
 237              	.LBE18:
 238              	.LBB21:
 239              		.loc 1 149 0
 240 0008 0023     		movs	r3, #0
 241              	.LVL23:
 242              	.LBE21:
 243              	.LBB22:
 244              	.LBB20:
 245              		.loc 1 129 0
 246 000a 0A60     		str	r2, [r1, #0]
 247              		.loc 1 130 0
 248 000c 0160     		str	r1, [r0, #0]
 249              	.LBE20:
 250              	.LBE22:
 251              	.LBB23:
 252              		.loc 1 149 0
 253              	@ 149 "../../os/kernel/src/chmempools.c" 1
 254 000e 83F31188 		msr     BASEPRI, r3
 255              	@ 0 "" 2
 256              	.LVL24:
 257              		.thumb
 258              	.LBE23:
 259              		.loc 1 150 0
 260 0012 7047     		bx	lr
 261              		.cfi_endproc
 262              	.LFE11:
 263              		.size	chPoolFree, .-chPoolFree
 264 0014 AFF30080 		.text
 264      AFF30080 
 264      AFF30080 
 265              	.Letext0:
 266              		.file 2 "/opt/arm-2011q3/bin/../lib/gcc/arm-none-eabi/4.6.1/include/stddef.h"
 267              		.file 3 "/opt/arm-2011q3/bin/../lib/gcc/arm-none-eabi/4.6.1/../../../../arm-none-eabi/include/stdi
 268              		.file 4 "../../os/kernel/include/chmemcore.h"
 269              		.file 5 "../../os/kernel/include/chmempools.h"
