ARM GAS  /tmp/cckyEQD0.s 			page 1


   1              		.syntax unified
   2              		.cpu cortex-m3
   3              		.fpu softvfp
   4              		.eabi_attribute 20, 1
   5              		.eabi_attribute 21, 1
   6              		.eabi_attribute 23, 3
   7              		.eabi_attribute 24, 1
   8              		.eabi_attribute 25, 1
   9              		.eabi_attribute 26, 1
  10              		.eabi_attribute 30, 2
  11              		.eabi_attribute 34, 1
  12              		.eabi_attribute 18, 4
  13              		.thumb
  14              		.file	"evtimer.c"
  15              		.text
  16              	.Ltext0:
  17              		.cfi_sections	.debug_frame
  18              		.section	.text.tmrcb,"ax",%progbits
  19              		.align	2
  20              		.p2align 4,,15
  21              		.thumb
  22              		.thumb_func
  23              		.type	tmrcb, %function
  24              	tmrcb:
  25              	.LFB7:
  26              		.file 1 "../../os/various/evtimer.c"
  27              		.loc 1 39 0
  28              		.cfi_startproc
  29              		@ args = 0, pretend = 0, frame = 0
  30              		@ frame_needed = 0, uses_anonymous_args = 0
  31              	.LVL0:
  32 0000 10B5     		push	{r4, lr}
  33              	.LCFI0:
  34              		.cfi_def_cfa_offset 8
  35              		.cfi_offset 14, -4
  36              		.cfi_offset 4, -8
  37              		.loc 1 42 0
  38 0002 0021     		movs	r1, #0
  39              		.loc 1 39 0
  40 0004 0446     		mov	r4, r0
  41              	.LVL1:
  42              		.loc 1 42 0
  43 0006 1430     		adds	r0, r0, #20
  44              	.LVL2:
  45 0008 FFF7FEFF 		bl	chEvtBroadcastFlagsI
  46              		.loc 1 43 0
  47 000c 40F20002 		movw	r2, #:lower16:tmrcb
  48 0010 A169     		ldr	r1, [r4, #24]
  49 0012 2046     		mov	r0, r4
  50 0014 C0F20002 		movt	r2, #:upper16:tmrcb
  51 0018 2346     		mov	r3, r4
  52              		.loc 1 44 0
  53 001a BDE81040 		pop	{r4, lr}
  54              		.loc 1 43 0
  55 001e FFF7FEBF 		b	chVTSetI
  56              		.cfi_endproc
  57              	.LFE7:
ARM GAS  /tmp/cckyEQD0.s 			page 2


  58              		.size	tmrcb, .-tmrcb
  59 0022 00BFAFF3 		.section	.text.evtStart,"ax",%progbits
  59      0080AFF3 
  59      0080AFF3 
  59      0080
  60              		.align	2
  61              		.p2align 4,,15
  62              		.global	evtStart
  63              		.thumb
  64              		.thumb_func
  65              		.type	evtStart, %function
  66              	evtStart:
  67              	.LFB8:
  68              		.loc 1 52 0
  69              		.cfi_startproc
  70              		@ args = 0, pretend = 0, frame = 0
  71              		@ frame_needed = 0, uses_anonymous_args = 0
  72              	.LVL3:
  73 0000 10B5     		push	{r4, lr}
  74              	.LCFI1:
  75              		.cfi_def_cfa_offset 8
  76              		.cfi_offset 14, -4
  77              		.cfi_offset 4, -8
  78              	.LBB2:
  79              		.loc 1 54 0
  80 0002 2023     		movs	r3, #32
  81              	.LVL4:
  82              	@ 54 "../../os/various/evtimer.c" 1
  83 0004 83F31188 		msr     BASEPRI, r3
  84              	@ 0 "" 2
  85              	.LVL5:
  86              		.thumb
  87              	.LBE2:
  88              		.loc 1 56 0
  89 0008 C368     		ldr	r3, [r0, #12]
  90              	.LVL6:
  91 000a 1BB1     		cbz	r3, .L5
  92              	.LBB3:
  93              		.loc 1 59 0
  94 000c 0023     		movs	r3, #0
  95              	.LVL7:
  96              	@ 59 "../../os/various/evtimer.c" 1
  97 000e 83F31188 		msr     BASEPRI, r3
  98              	@ 0 "" 2
  99              	.LVL8:
 100              		.thumb
 101              	.LBE3:
 102              		.loc 1 60 0
 103 0012 10BD     		pop	{r4, pc}
 104              	.LVL9:
 105              	.L5:
 106              		.loc 1 57 0
 107 0014 40F20002 		movw	r2, #:lower16:tmrcb
 108 0018 0346     		mov	r3, r0
 109 001a 8169     		ldr	r1, [r0, #24]
 110 001c C0F20002 		movt	r2, #:upper16:tmrcb
 111 0020 FFF7FEFF 		bl	chVTSetI
ARM GAS  /tmp/cckyEQD0.s 			page 3


 112              	.LVL10:
 113              	.LBB4:
 114              		.loc 1 59 0
 115 0024 0023     		movs	r3, #0
 116              	@ 59 "../../os/various/evtimer.c" 1
 117 0026 83F31188 		msr     BASEPRI, r3
 118              	@ 0 "" 2
 119              	.LVL11:
 120              		.thumb
 121              	.LBE4:
 122              		.loc 1 60 0
 123 002a 10BD     		pop	{r4, pc}
 124              		.cfi_endproc
 125              	.LFE8:
 126              		.size	evtStart, .-evtStart
 127 002c AFF30080 		.section	.text.evtStop,"ax",%progbits
 128              		.align	2
 129              		.p2align 4,,15
 130              		.global	evtStop
 131              		.thumb
 132              		.thumb_func
 133              		.type	evtStop, %function
 134              	evtStop:
 135              	.LFB9:
 136              		.loc 1 68 0
 137              		.cfi_startproc
 138              		@ args = 0, pretend = 0, frame = 0
 139              		@ frame_needed = 0, uses_anonymous_args = 0
 140              	.LVL12:
 141 0000 08B5     		push	{r3, lr}
 142              	.LCFI2:
 143              		.cfi_def_cfa_offset 8
 144              		.cfi_offset 14, -4
 145              		.cfi_offset 3, -8
 146              	.LBB5:
 147              		.loc 1 70 0
 148 0002 2023     		movs	r3, #32
 149              	.LVL13:
 150              	@ 70 "../../os/various/evtimer.c" 1
 151 0004 83F31188 		msr     BASEPRI, r3
 152              	@ 0 "" 2
 153              	.LVL14:
 154              		.thumb
 155              	.LBE5:
 156              		.loc 1 72 0
 157 0008 C368     		ldr	r3, [r0, #12]
 158              	.LVL15:
 159 000a 0BB1     		cbz	r3, .L7
 160              		.loc 1 73 0
 161 000c FFF7FEFF 		bl	chVTResetI
 162              	.LVL16:
 163              	.L7:
 164              	.LBB6:
 165              		.loc 1 75 0
 166 0010 0023     		movs	r3, #0
 167              	.LVL17:
 168              	@ 75 "../../os/various/evtimer.c" 1
ARM GAS  /tmp/cckyEQD0.s 			page 4


 169 0012 83F31188 		msr     BASEPRI, r3
 170              	@ 0 "" 2
 171              	.LVL18:
 172              		.thumb
 173              	.LBE6:
 174              		.loc 1 76 0
 175 0016 08BD     		pop	{r3, pc}
 176              		.cfi_endproc
 177              	.LFE9:
 178              		.size	evtStop, .-evtStop
 179 0018 AFF30080 		.text
 179      AFF30080 
 180              	.Letext0:
 181              		.file 2 "/opt/arm-2011q3/bin/../lib/gcc/arm-none-eabi/4.6.1/../../../../arm-none-eabi/include/stdi
 182              		.file 3 "../../os/ports/GCC/ARMCMx/chtypes.h"
 183              		.file 4 "../../os/kernel/include/chlists.h"
 184              		.file 5 "../../os/kernel/include/chthreads.h"
 185              		.file 6 "../../os/ports/GCC/ARMCMx/chcore_v7m.h"
 186              		.file 7 "../../os/kernel/include/chvt.h"
 187              		.file 8 "../../os/kernel/include/chmtx.h"
 188              		.file 9 "../../os/kernel/include/chevents.h"
 189              		.file 10 "../../os/various/evtimer.h"
