ARM GAS  /tmp/cctGBxqs.s 			page 1


   1              		.syntax unified
   2              		.cpu cortex-m3
   3              		.fpu softvfp
   4              		.eabi_attribute 20, 1
   5              		.eabi_attribute 21, 1
   6              		.eabi_attribute 23, 3
   7              		.eabi_attribute 24, 1
   8              		.eabi_attribute 25, 1
   9              		.eabi_attribute 26, 1
  10              		.eabi_attribute 30, 2
  11              		.eabi_attribute 34, 1
  12              		.eabi_attribute 18, 4
  13              		.thumb
  14              		.file	"hal_lld.c"
  15              		.text
  16              	.Ltext0:
  17              		.cfi_sections	.debug_frame
  18              		.section	.text.hal_lld_init,"ax",%progbits
  19              		.align	2
  20              		.p2align 4,,15
  21              		.global	hal_lld_init
  22              		.thumb
  23              		.thumb_func
  24              		.type	hal_lld_init, %function
  25              	hal_lld_init:
  26              	.LFB36:
  27              		.file 1 "../../os/hal/platforms/AT91SAM3/hal_lld.c"
  28              		.loc 1 66 0
  29              		.cfi_startproc
  30              		@ args = 0, pretend = 0, frame = 0
  31              		@ frame_needed = 0, uses_anonymous_args = 0
  32 0000 08B5     		push	{r3, lr}
  33              	.LCFI0:
  34              		.cfi_def_cfa_offset 8
  35              		.cfi_offset 14, -4
  36              		.cfi_offset 3, -8
  37              		.loc 1 68 0
  38 0002 FFF7FEFF 		bl	SystemCoreClockUpdate
  39              		.loc 1 71 0
  40 0006 0B20     		movs	r0, #11
  41 0008 0821     		movs	r1, #8
  42 000a FFF7FEFF 		bl	nvicSetSystemHandlerPriority
  43              		.loc 1 72 0
  44 000e 40F20003 		movw	r3, #:lower16:SystemCoreClock
  45 0012 C0F20003 		movt	r3, #:upper16:SystemCoreClock
  46 0016 1968     		ldr	r1, [r3, #0]
  47 0018 44F6D35C 		movw	ip, #19923
  48 001c C1F2620C 		movt	ip, 4194
  49 0020 ACFB0110 		umull	r1, r0, ip, r1
  50 0024 4EF21003 		movw	r3, #57360
  51 0028 8209     		lsrs	r2, r0, #6
  52 002a CEF20003 		movt	r3, 57344
  53 002e 511E     		subs	r1, r2, #1
  54              		.loc 1 73 0
  55 0030 0020     		movs	r0, #0
  56              		.loc 1 74 0
  57 0032 0722     		movs	r2, #7
ARM GAS  /tmp/cctGBxqs.s 			page 2


  58              		.loc 1 72 0
  59 0034 5960     		str	r1, [r3, #4]
  60              		.loc 1 73 0
  61 0036 9860     		str	r0, [r3, #8]
  62              		.loc 1 74 0
  63 0038 1A60     		str	r2, [r3, #0]
  64              		.loc 1 77 0
  65 003a 08BD     		pop	{r3, pc}
  66              		.cfi_endproc
  67              	.LFE36:
  68              		.size	hal_lld_init, .-hal_lld_init
  69 003c AFF30080 		.section	.text.at91sam3_clock_init,"ax",%progbits
  70              		.align	2
  71              		.p2align 4,,15
  72              		.global	at91sam3_clock_init
  73              		.thumb
  74              		.thumb_func
  75              		.type	at91sam3_clock_init, %function
  76              	at91sam3_clock_init:
  77              	.LFB37:
  78              		.loc 1 92 0
  79              		.cfi_startproc
  80              		@ args = 0, pretend = 0, frame = 0
  81              		@ frame_needed = 0, uses_anonymous_args = 0
  82              		@ link register save eliminated.
  83              		.loc 1 94 0
  84              		.loc 1 93 0
  85 0000 FFF7FEBF 		b	SystemInit
  86              		.cfi_endproc
  87              	.LFE37:
  88              		.size	at91sam3_clock_init, .-at91sam3_clock_init
  89 0004 AFF30080 		.text
  89      AFF30080 
  89      AFF30080 
  90              	.Letext0:
  91              		.file 2 "../../os/hal/platforms/AT91SAM3/core_cm3.h"
  92              		.file 3 "/opt/arm-2011q3/bin/../lib/gcc/arm-none-eabi/4.6.1/../../../../arm-none-eabi/include/stdi
  93              		.file 4 "../../os/hal/platforms/AT91SAM3/system_SAM3.h"
