ARM GAS  /tmp/ccd8iXeH.s 			page 1


   1              		.syntax unified
   2              		.cpu cortex-m3
   3              		.fpu softvfp
   4              		.eabi_attribute 20, 1
   5              		.eabi_attribute 21, 1
   6              		.eabi_attribute 23, 3
   7              		.eabi_attribute 24, 1
   8              		.eabi_attribute 25, 1
   9              		.eabi_attribute 26, 1
  10              		.eabi_attribute 30, 2
  11              		.eabi_attribute 34, 1
  12              		.eabi_attribute 18, 4
  13              		.thumb
  14              		.file	"system_SAM3.c"
  15              		.text
  16              	.Ltext0:
  17              		.cfi_sections	.debug_frame
  18              		.section	.text.SystemCoreClockUpdate,"ax",%progbits
  19              		.align	2
  20              		.p2align 4,,15
  21              		.global	SystemCoreClockUpdate
  22              		.thumb
  23              		.thumb_func
  24              		.type	SystemCoreClockUpdate, %function
  25              	SystemCoreClockUpdate:
  26              	.LFB29:
  27              		.file 1 "../../os/hal/platforms/AT91SAM3/system_SAM3.c"
  28              		.loc 1 360 0
  29              		.cfi_startproc
  30              		@ args = 0, pretend = 0, frame = 0
  31              		@ frame_needed = 0, uses_anonymous_args = 0
  32              		@ link register save eliminated.
  33              		.loc 1 362 0
  34 0000 4FF48062 		mov	r2, #1024
  35 0004 C4F20E02 		movt	r2, 16398
  36 0008 136B     		ldr	r3, [r2, #48]
  37              		.loc 1 360 0
  38 000a 10B4     		push	{r4}
  39              	.LCFI0:
  40              		.cfi_def_cfa_offset 4
  41              		.cfi_offset 4, -4
  42              		.loc 1 362 0
  43 000c 03F00303 		and	r3, r3, #3
  44 0010 022B     		cmp	r3, #2
  45 0012 60D0     		beq	.L4
  46 0014 032B     		cmp	r3, #3
  47 0016 46D0     		beq	.L5
  48 0018 012B     		cmp	r3, #1
  49 001a 20D0     		beq	.L3
  50              		.loc 1 364 0
  51 001c 41F21042 		movw	r2, #5136
  52 0020 C4F20E02 		movt	r2, 16398
  53 0024 5169     		ldr	r1, [r2, #20]
  54              		.loc 1 365 0
  55 0026 40F20003 		movw	r3, #:lower16:.LANCHOR0
  56              		.loc 1 364 0
  57 002a 11F0800F 		tst	r1, #128
ARM GAS  /tmp/ccd8iXeH.s 			page 2


  58              		.loc 1 365 0
  59 002e 14BF     		ite	ne
  60 0030 4FF40040 		movne	r0, #32768
  61              		.loc 1 367 0
  62 0034 4FF4FA40 		moveq	r0, #32000
  63 0038 C0F20003 		movt	r3, #:upper16:.LANCHOR0
  64 003c 1860     		str	r0, [r3, #0]
  65              	.L7:
  66              		.loc 1 415 0
  67 003e 4FF48062 		mov	r2, #1024
  68 0042 C4F20E02 		movt	r2, 16398
  69 0046 116B     		ldr	r1, [r2, #48]
  70 0048 C1F30211 		ubfx	r1, r1, #4, #3
  71 004c 0729     		cmp	r1, #7
  72 004e 39D0     		beq	.L23
  73              	.L15:
  74              		.loc 1 418 0
  75 0050 116B     		ldr	r1, [r2, #48]
  76 0052 C1F30212 		ubfx	r2, r1, #4, #3
  77 0056 D040     		lsrs	r0, r0, r2
  78 0058 1860     		str	r0, [r3, #0]
  79              	.L1:
  80              		.loc 1 420 0
  81 005a 10BC     		pop	{r4}
  82 005c 7047     		bx	lr
  83              	.L3:
  84              		.loc 1 370 0
  85 005e 106A     		ldr	r0, [r2, #32]
  86              		.loc 1 371 0
  87 0060 40F20003 		movw	r3, #:lower16:.LANCHOR0
  88              		.loc 1 370 0
  89 0064 10F08070 		ands	r0, r0, #16777216
  90 0068 6BD1     		bne	.L24
  91              		.loc 1 373 0
  92 006a 4FF41061 		mov	r1, #2304
  93 006e C0F20003 		movt	r3, #:upper16:.LANCHOR0
  94 0072 C0F23D01 		movt	r1, 61
  95 0076 1960     		str	r1, [r3, #0]
  96              		.loc 1 374 0
  97 0078 126A     		ldr	r2, [r2, #32]
  98 007a C2F30112 		ubfx	r2, r2, #4, #2
  99 007e 022A     		cmp	r2, #2
 100              		.loc 1 381 0
 101 0080 02BF     		ittt	eq
 102 0082 4FF4D850 		moveq	r0, #6912
 103 0086 C0F2B700 		movteq	r0, 183
 104 008a 1860     		streq	r0, [r3, #0]
 105              		.loc 1 374 0
 106 008c D7D0     		beq	.L7
 107 008e 032A     		cmp	r2, #3
 108 0090 4CD0     		beq	.L21
 109 0092 012A     		cmp	r2, #1
 110              		.loc 1 378 0
 111 0094 02BF     		ittt	eq
 112 0096 4FF49050 		moveq	r0, #4608
 113 009a C0F27A00 		movteq	r0, 122
 114 009e 1860     		streq	r0, [r3, #0]
ARM GAS  /tmp/ccd8iXeH.s 			page 3


 115              		.loc 1 374 0
 116 00a0 CDD0     		beq	.L7
 117 00a2 0846     		mov	r0, r1
 118 00a4 CBE7     		b	.L7
 119              	.L5:
 120              		.loc 1 411 0
 121 00a6 40F20003 		movw	r3, #:lower16:.LANCHOR0
 122 00aa 0020     		movs	r0, #0
 123 00ac C0F20003 		movt	r3, #:upper16:.LANCHOR0
 124              		.loc 1 415 0
 125 00b0 4FF48062 		mov	r2, #1024
 126              		.loc 1 411 0
 127 00b4 1860     		str	r0, [r3, #0]
 128              		.loc 1 415 0
 129 00b6 C4F20E02 		movt	r2, 16398
 130 00ba 116B     		ldr	r1, [r2, #48]
 131 00bc C1F30211 		ubfx	r1, r1, #4, #3
 132 00c0 0729     		cmp	r1, #7
 133 00c2 C5D1     		bne	.L15
 134              	.L23:
 135              		.loc 1 416 0
 136 00c4 4AF6AB21 		movw	r1, #43691
 137 00c8 CAF6AA21 		movt	r1, 43690
 138 00cc A1FB0012 		umull	r1, r2, r1, r0
 139 00d0 5008     		lsrs	r0, r2, #1
 140 00d2 1860     		str	r0, [r3, #0]
 141 00d4 C1E7     		b	.L1
 142              	.L4:
 143              		.loc 1 390 0
 144 00d6 136A     		ldr	r3, [r2, #32]
 145 00d8 DB01     		lsls	r3, r3, #7
 146 00da 29D4     		bmi	.L18
 147              		.loc 1 393 0
 148 00dc 40F20003 		movw	r3, #:lower16:.LANCHOR0
 149 00e0 4FF41064 		mov	r4, #2304
 150 00e4 C0F20003 		movt	r3, #:upper16:.LANCHOR0
 151 00e8 C0F23D04 		movt	r4, 61
 152 00ec 1C60     		str	r4, [r3, #0]
 153              		.loc 1 394 0
 154 00ee 116A     		ldr	r1, [r2, #32]
 155 00f0 C1F30111 		ubfx	r1, r1, #4, #2
 156 00f4 0129     		cmp	r1, #1
 157              		.loc 1 399 0
 158 00f6 04BF     		itt	eq
 159 00f8 4FF49051 		moveq	r1, #4608
 160 00fc C0F27A01 		movteq	r1, 122
 161              		.loc 1 394 0
 162 0100 07D0     		beq	.L12
 163 0102 4FF4D85C 		mov	ip, #6912
 164 0106 C0F2B70C 		movt	ip, 183
 165 010a 0229     		cmp	r1, #2
 166 010c 0CBF     		ite	eq
 167 010e 6146     		moveq	r1, ip
 168 0110 2146     		movne	r1, r4
 169              	.L12:
 170              		.loc 1 407 0
 171 0112 4FF48062 		mov	r2, #1024
ARM GAS  /tmp/ccd8iXeH.s 			page 4


 172 0116 C4F20E02 		movt	r2, 16398
 173 011a 906A     		ldr	r0, [r2, #40]
 174              		.loc 1 408 0
 175 011c 926A     		ldr	r2, [r2, #40]
 176              		.loc 1 407 0
 177 011e C0F30A4C 		ubfx	ip, r0, #16, #11
 178 0122 0CFB0110 		mla	r0, ip, r1, r1
 179              		.loc 1 408 0
 180 0126 D2B2     		uxtb	r2, r2
 181 0128 B0FBF2F0 		udiv	r0, r0, r2
 182              	.L21:
 183 012c 1860     		str	r0, [r3, #0]
 184              		.loc 1 409 0
 185 012e 86E7     		b	.L7
 186              	.L18:
 187              		.loc 1 390 0
 188 0130 4FF4D851 		mov	r1, #6912
 189 0134 40F20003 		movw	r3, #:lower16:.LANCHOR0
 190 0138 C0F2B701 		movt	r1, 183
 191 013c C0F20003 		movt	r3, #:upper16:.LANCHOR0
 192 0140 E7E7     		b	.L12
 193              	.L24:
 194              		.loc 1 371 0
 195 0142 4FF4D850 		mov	r0, #6912
 196 0146 C0F2B700 		movt	r0, 183
 197 014a C0F20003 		movt	r3, #:upper16:.LANCHOR0
 198 014e 1860     		str	r0, [r3, #0]
 199 0150 75E7     		b	.L7
 200              		.cfi_endproc
 201              	.LFE29:
 202              		.size	SystemCoreClockUpdate, .-SystemCoreClockUpdate
 203 0152 00BFAFF3 		.section	.text.SystemInit,"ax",%progbits
 203      0080AFF3 
 203      0080AFF3 
 203      0080
 204              		.align	2
 205              		.p2align 4,,15
 206              		.global	SystemInit
 207              		.thumb
 208              		.thumb_func
 209              		.type	SystemInit, %function
 210              	SystemInit:
 211              	.LFB30:
 212              		.loc 1 432 0
 213              		.cfi_startproc
 214              		@ args = 0, pretend = 0, frame = 0
 215              		@ frame_needed = 0, uses_anonymous_args = 0
 216              		@ link register save eliminated.
 217              		.loc 1 434 0
 218 0000 4FF42062 		mov	r2, #2560
 219              		.loc 1 438 0
 220 0004 4FF48063 		mov	r3, #1024
 221 0008 4FF48640 		mov	r0, #17152
 222              		.loc 1 444 0
 223 000c 40F60901 		movw	r1, #2057
 224              		.loc 1 432 0
 225 0010 10B4     		push	{r4}
ARM GAS  /tmp/ccd8iXeH.s 			page 5


 226              	.LCFI1:
 227              		.cfi_def_cfa_offset 4
 228              		.cfi_offset 4, -4
 229              		.loc 1 438 0
 230 0012 C4F20E03 		movt	r3, 16398
 231              		.loc 1 434 0
 232 0016 C4F20E02 		movt	r2, 16398
 233              		.loc 1 438 0
 234 001a C5F24D00 		movt	r0, 20557
 235              		.loc 1 444 0
 236 001e C0F23711 		movt	r1, 311
 237              		.loc 1 434 0
 238 0022 4FF40074 		mov	r4, #512
 239 0026 1460     		str	r4, [r2, #0]
 240              		.loc 1 438 0
 241 0028 C3F8E400 		str	r0, [r3, #228]
 242              		.loc 1 446 0
 243 002c 1A46     		mov	r2, r3
 244              		.loc 1 444 0
 245 002e 1962     		str	r1, [r3, #32]
 246              	.L26:
 247              		.loc 1 446 0 discriminator 1
 248 0030 916E     		ldr	r1, [r2, #104]
 249 0032 8B03     		lsls	r3, r1, #14
 250 0034 FCD5     		bpl	.L26
 251              		.loc 1 449 0 discriminator 1
 252 0036 4FF48061 		mov	r1, #1024
 253 003a C4F20E01 		movt	r1, 16398
 254              	.L31:
 255 003e 886E     		ldr	r0, [r1, #104]
 256 0040 4FF48063 		mov	r3, #1024
 257 0044 C007     		lsls	r0, r0, #31
 258 0046 C4F20E03 		movt	r3, 16398
 259 004a F8D5     		bpl	.L31
 260              		.loc 1 454 0
 261 004c 48F20162 		movw	r2, #34305
 262 0050 C2F20F02 		movt	r2, 8207
 263 0054 9A62     		str	r2, [r3, #40]
 264              		.loc 1 455 0
 265 0056 1946     		mov	r1, r3
 266              	.L28:
 267              		.loc 1 455 0 is_stmt 0 discriminator 1
 268 0058 886E     		ldr	r0, [r1, #104]
 269 005a 4FF48063 		mov	r3, #1024
 270 005e 8207     		lsls	r2, r0, #30
 271 0060 C4F20E03 		movt	r3, 16398
 272 0064 F8D5     		bpl	.L28
 273              		.loc 1 460 0 is_stmt 1
 274 0066 1A6B     		ldr	r2, [r3, #48]
 275              		.loc 1 465 0
 276 0068 1946     		mov	r1, r3
 277              		.loc 1 460 0
 278 006a 22F07000 		bic	r0, r2, #112
 279 006e 40F02002 		orr	r2, r0, #32
 280 0072 1A63     		str	r2, [r3, #48]
 281              	.L29:
 282              		.loc 1 465 0 discriminator 1
ARM GAS  /tmp/ccd8iXeH.s 			page 6


 283 0074 886E     		ldr	r0, [r1, #104]
 284 0076 4FF48063 		mov	r3, #1024
 285 007a 0007     		lsls	r0, r0, #28
 286 007c C4F20E03 		movt	r3, 16398
 287 0080 F8D5     		bpl	.L29
 288              		.loc 1 466 0
 289 0082 2221     		movs	r1, #34
 290 0084 1963     		str	r1, [r3, #48]
 291              		.loc 1 467 0
 292 0086 1946     		mov	r1, r3
 293              	.L30:
 294              		.loc 1 467 0 is_stmt 0 discriminator 1
 295 0088 8A6E     		ldr	r2, [r1, #104]
 296 008a 4FF48063 		mov	r3, #1024
 297 008e 1207     		lsls	r2, r2, #28
 298 0090 C4F20E03 		movt	r3, 16398
 299 0094 F8D5     		bpl	.L30
 300              		.loc 1 487 0 is_stmt 1
 301 0096 44F20131 		movw	r1, #17153
 302              		.loc 1 491 0
 303 009a 41F2504C 		movw	ip, #5200
 304              		.loc 1 487 0
 305 009e C5F24D01 		movt	r1, 20557
 306              		.loc 1 482 0
 307 00a2 0022     		movs	r2, #0
 308              		.loc 1 483 0
 309 00a4 4FF4E050 		mov	r0, #7168
 310              		.loc 1 482 0
 311 00a8 1A60     		str	r2, [r3, #0]
 312              		.loc 1 491 0
 313 00aa C4F20E0C 		movt	ip, 16398
 314              		.loc 1 483 0
 315 00ae 1861     		str	r0, [r3, #16]
 316              		.loc 1 487 0
 317 00b0 C3F8E410 		str	r1, [r3, #228]
 318              		.loc 1 491 0
 319 00b4 4FF40043 		mov	r3, #32768
 320 00b8 CCF80430 		str	r3, [ip, #4]
 321              		.loc 1 499 0
 322 00bc 10BC     		pop	{r4}
 323 00be 7047     		bx	lr
 324              		.cfi_endproc
 325              	.LFE30:
 326              		.size	SystemInit, .-SystemInit
 327              		.global	SystemCoreClock
 328              		.section	.data.SystemCoreClock,"aw",%progbits
 329              		.align	2
 330              		.set	.LANCHOR0,. + 0
 331              		.type	SystemCoreClock, %object
 332              		.size	SystemCoreClock, 4
 333              	SystemCoreClock:
 334 0000 006CDC02 		.word	48000000
 335              		.text
 336              	.Letext0:
 337              		.file 2 "../../os/hal/platforms/AT91SAM3/at91lib/SAM3N.h"
 338              		.file 3 "/opt/arm-2011q3/bin/../lib/gcc/arm-none-eabi/4.6.1/../../../../arm-none-eabi/include/stdi
 339              		.file 4 "../../os/hal/platforms/AT91SAM3/core_cm3.h"
ARM GAS  /tmp/ccd8iXeH.s 			page 7


 340              		.file 5 "../../os/hal/platforms/AT91SAM3/system_SAM3.h"
